:100000002FEF00F00000000000EF00F00000000003
:0A0010000000000000000000F3D71C
:10001C000DD03F0E8C6E14D0060E8C6E11D05B0E74
:10002C008C6E0ED08C6AFF0E156E0AD01750000A1B
:10003C00F0E01750010AF0E01750020AF0E0F2D796
:02004C001200A0
:10004E000900F5CFE6FF0006FBE10106F9E112001B
:10005E00FF0E156E166A0F0EC16E9380956A8C6A2E
:10006E00929492969298929A899489968998898A6E
:10007E0081B012D01650000A0FE1152A15C017F0E4
:10008E00C6DF010E166E680E0C6EE40E0D6E0D2E92
:10009E00FED70C2EFCD7000081A00DD01650010A01
:1000AE000AE1166A680E0C6EE40E0D6E0D2EFED76A
:0A00BE000C2EFCD70000DCD7FFD7A2
:020000040030CA
:0E000000000C1F1EFF8281FF034003600340BF
:00000001FF
