:100000001DEF01F00000000000EF00F00000000014
:0A0010000000000000000000F3D71C
:06001C00000000001200CC
:100022000F0E0C6E470E0D6E0D2EFED70C2EFCD74A
:06003200000000001200B6
:0A003800210E0D6E0D2EFED71200F2
:100042004FBE02D08C9E01D08C8E4FBC02D08C9CB5
:1000520001D08C8C4FBA02D08C9A01D08C8A4FB8C6
:1000620002D08C9801D08C8842B002D08D8401D00D
:100072008D948D82D2DF8D924FB602D08C9E01D0AC
:100082008C8E4FB402D08C9C01D08C8C4FB202D09B
:100092008C9A01D08C8A4FB002D08C9801D08C8877
:1000A20042B002D08D8401D08D948D82B6DF8D92C4
:0C00B20042A002D0B5DF01D0BEDF12007A
:0C00BE0042904EC04FF0BEDF42801200A6
:1000CA000FD0800E496E19D0C00E496E16D0940E0C
:1000DA00496E13D0D40E496E10D0800E496E0DD0E1
:1000EA004950010AEEE04950020AEEE04950030A7B
:1000FA00EEE04950040AEEE0F0D74A04006E495097
:10010A00002600C049F000C04FF096DF42904D6AC9
:10011A004D504B24E96E000E4C20EA6EEE520BE075
:10012A004D504B24E96E000E4C20EA6EEECF4EF095
:0A013A00C1DF4D2AEDD7428012000C
:10014400969296949598959A959C959E8D928D9459
:100154008C9E8C9C8C9A8C9862DF61DF60DF8C8A29
:100164008C888D8259DF8D925ADF8D8255DF8D9276
:1001740056DF8D8251DF8D9252DF8C988D824CDF59
:100184008D924DDF8D8248DF8D928C9A8C8E8D827C
:1001940043DF8D9244DF8C9E8C888D823DDF8D926F
:1001A4008C988D8239DF8D923ADF8D8235DF8D9286
:1001B4008C888D8231DF8D9232DF8C988D822CDF9A
:1001C4008D928C8E8C8C8C8A8C888D8225DF8D927E
:0601D40026DF428012004C
:1001DA000900F5CFE6FF0006FBE10106F9E112008E
:1001EA0049C000F04AC001F001320032019E0132DA
:1001FA000032019E00C0BEFFCF0EBD14036E030E77
:10020A004914026E02C000F00036009000360090D9
:10021A00003600900036009000500310BD6E1200A8
:10022A009494FF0ECB6E050ECA6E0C0EBD6E1200B4
:10023A00FDEC01F0456A466A476A486A0F0EC16ECC
:10024A00070EB46EFF0E936E78DF010E4F6EF4DE6A
:10025A000C0E4F6EF1DEE4DF81B21CD0820E0C6E02
:10026A00DD0E0D6E0D2EFED70C2EFCD70000000001
:10027A0081B210D0474A482A800E006E800E481874
:10028A00005C02E14750040802E2476A486A81B208
:10029A0001D0FDD781B420D0820E0C6EDD0E0D6E1A
:1002AA000D2EFED70C2EFCD70000000081B414D00E
:1002BA00010E475E000E485A800E4818006E800EE6
:1002CA00005C02E1000E475C04E2040E476E000E79
:1002DA00486E81B401D0FDD72BD0456A466A300EEC
:1002EA00436E000E446E42D0000E456E010E466EFD
:1002FA00350E436E000E446E39D0000E456E020E66
:10030A00466E2B0E436E000E446E30D0FF0E456EC5
:10031A00020E466E150E436E000E446E27D0FF0E77
:10032A00456E030E466E1A0E436E000E446E1ED0C4
:10033A00000E481802E1000E4718CFE0000E4818D8
:10034A0002E1010E4718D0E0000E481802E1020E41
:10035A004718D3E0000E481802E1030E4718D6E00A
:10036A00000E481802E1040E4718D9E045C049F0CA
:10037A0046C04AF035DF010E496E010E4A6E1F0E65
:10038A004B6E000E4C6E9CDE010E496E0D0E4A6ECF
:10039A0043C04BF044C04CF093DE020E496E010E8E
:1003AA004A6E3A0E4B6E000E4C6E8ADE020E496E93
:1003BA00060E4A6E400E4B6E000E4C6E81DE4CD716
:0203CA00FFD75B
:1003FA0010EE15F02D0E006E010E016ECC0EF66E8B
:0E040A00030EF76E000EF86EEDEC00F012001F
:0503CC0037352520007B
:0503D100313030250071
:0C03D60044757479204379636C653A002B
:0503E20035302520006C
:0503E70030252020007C
:0503EC00323525200060
:0603F10052504D3A2000BD
:0203F7003000D4
:020000040030CA
:0E000000000C1F1EFF8381FF0FC00FE00F409A
:00000001FF
