:100000002FEF00F00000000000EF00F00000000003
:0A0010000000000000000000F3D71C
:10001C000DD03F0E8C6E14D0060E8C6E11D05B0E74
:10002C008C6E0ED0836AFF0E156E0AD01750000A24
:10003C00F0E01750010AF0E01750020AF0E0F2D796
:02004C001200A0
:10004E000900F5CFE6FF0006FBE10106F9E112001B
:10005E00FF0E156E166A0F0EC11293808180956A7F
:10006E00836A81B012D01650000A0FE1152A15C00E
:10007E0017F0CDDF010E166E680E0C6EE40E0D6ECF
:10008E000D2EFED70C2EFCD7000081A00DD01650E1
:10009E00010A0AE1166A680E0C6EE40E0D6E0D2E44
:0C00AE00FED70C2EFCD70000DCD7FFD7DB
:020000040030CA
:0E000000000C1F1EFF8381FF0FC00FE00F409A
:00000001FF
