:1000000002EF01F00000000000EF00F0000000002F
:0A0010000000000000000000F3D71C
:10001C000F0E0C6E470E0D6E0D2EFED70C2EFCD750
:06002C00000000001200BC
:06003200000000001200B6
:0A003800210E0D6E0D2EFED71200F2
:100042004FBE02D08C9E01D08C8E4FBC02D08C9CB5
:1000520001D08C8C4FBA02D08C9A01D08C8A4FB8C6
:1000620002D08C9801D08C8847B002D08D8401D008
:100072008D948D82DDDF8D924FB602D08C9E01D0A1
:100082008C8E4FB402D08C9C01D08C8C4FB202D09B
:100092008C9A01D08C8A4FB002D08C9801D08C8877
:1000A20047B002D08D8401D08D948D82C1DF8D92B4
:0C00B20047A002D0B2DF01D0BEDF120078
:0C00BE0047904EC04FF0BEDF478012009C
:1000CA00969296949598959A959C959E8D928D94D4
:1000DA008C9E8C9C8C9A8C989CDF9BDF9ADF8C8AF6
:1000EA008C888D82A1DF8D9294DF8D829DDF8D9227
:1000FA0090DF8D8299DF8D928CDF8C988D8294DFD0
:10010A008D9287DF8D8290DF8D928C9A8C8E8D8274
:10011A008BDF8D927EDF8C9E8C888D8285DF8D921F
:10012A008C988D8281DF8D9274DF8D827DDF8D9236
:10013A008C888D8279DF8D926CDF8C988D8274DF4A
:10014A008D928C8E8C8C8C8A8C888D826DDF8D92B0
:06015A0060DF4780120087
:100160000900F5CFE6FF0006FBE10106F9E1120008
:10017000050E0B6E0F0E0C6EF10E0D6E0D2EFED7D2
:0A0180000C2EFCD70B2EFAD712004C
:10018A000FD0800E496E19D0C00E496E16D0940E4B
:10019A00496E13D0D40E496E10D0800E496E0DD020
:1001AA004950010AEEE04950020AEEE04950030ABA
:1001BA00EEE04950040AEEE0F0D74A04006E4950D6
:1001CA00002600C049F000C04FF036DF47904D6A64
:1001DA004D504B24E96E000E4C20EA6EEE520BE0B5
:1001EA004D504B24E96E000E4C20EA6EEECF4EF0D5
:0A01FA0061DF4D2AEDD747801200A7
:100204007FEC01F00F0EC16E070EB46E5CDF010EC1
:100214004F6E15DF0C0E4F6E12DF010E496E010E8C
:100224004A6E150E4B6E000E4C6EADDF020E496E1B
:10023400010E4A6E240E4B6E000E4C6EA4DF1A0E95
:100244000B6E5E0E0C6E6E0E0D6E0D2EFED70C2E0A
:10025400FCD70B2EFAD70000010E4F6EF0DE010E14
:10026400496E040E4A6E3D0E4B6E000E4C6E8BDFD3
:10027400020E496E040E4A6E330E4B6E000E4C6E27
:1002840082DF1A0E0B6E5E0E0C6E6E0E0D6E0D2E50
:10029400FED70C2EFCD70B2EFAD70000486A070EA7
:1002A400485C06E2180E4F6ECADE60DF482AF7D7B4
:1002B400486A070E485C06E21C0E4F6EC0DE56DF2D
:0802C400482AF7D7EBD7FFD75A
:1002FE0010EE15F0320E006E010E016ECC0EF66E83
:0E030E00020EF76E000EF86EB0EC00F012005A
:0F02CC004C43442041676F7261205661692100E5
:0F02DB0050696E6F7320436F727265746F73009A
:0A02EA0050494347656E696F7300C9
:0A02F40050494353696D4C616200EC
:020000040030CA
:0E000000000C1F1EFF8381FF0FC00FE00F409A
:00000001FF
