:1000000058EF01F00000000000EF00F000000000D9
:0A0010000000000000000000F3D71C
:0A001C00210E0D6E0D2EFED712000E
:100026000F0E0C6E470E0D6E0D2EFED70C2EFCD746
:06003600000000001200B2
:06003C00000000001200AC
:1000420039BE02D08C9E01D08C8E39BC02D08C9CE1
:1000520001D08C8C39BA02D08C9A01D08C8A39B8F2
:1000620002D08C9801D08C8829B002D08D8401D026
:100072008D948D82E2DF8D9239B602D08C9E01D0B2
:100082008C8E39B402D08C9C01D08C8C39B202D0C7
:100092008C9A01D08C8A39B002D08C9801D08C888D
:1000A20029B002D08D8401D08D948D82C6DF8D92CD
:0C00B20029A002D0B7DF01D0B0DF12009F
:1000BE00086A096A100E0C6E0134083609360450AF
:1000CE00085E0550D8A0053C095ED8B007D0045094
:1000DE0008260550D8B0053C0926D89000360136C2
:0600EE000C2EEAD71200FF
:0C00F400299038C039F0A3DF29801200E9
:10010000969296949598959A959C959E8D928D949D
:100110008C9E8C9C8C9A8C9886DF85DF84DF8C8A01
:100120008C888D828BDF8D927EDF8D8287DF8D9232
:100130007ADF8D8283DF8D9276DF8C988D827EDFF1
:100140008D9271DF8D827ADF8D928C9A8C8E8D826A
:1001500075DF8D9268DF8C9E8C888D826FDF8D922B
:100160008C988D826BDF8D925EDF8D8267DF8D9242
:100170008C888D8263DF8D9256DF8C988D825EDF56
:100180008D928C8E8C8C8C8A8C888D8257DF8D9290
:060190004ADF2980120085
:100196000900F5CFE6FF0006FBE10106F9E11200D2
:1001A600356A050E355C0AE235503324E16E000EE1
:1001B6003420E26E200EE66E352AF3D7355033240E
:1001C600E16E000E3420E26EE66A350635503324C1
:1001D600366E000E3420376E0A0E046E000E056E63
:1001E60031C000F032C001F067DF08C000F009C07E
:1001F60001F0300E002636C0E1FF37C0E2FF00C036
:10020600E6FF0A0E046E000E056E31C000F032C025
:1002160001F052DF00C031F001C032F0000E0118CB
:1002260002E1000E001801E102D03506CFD7120018
:100236000FD0800E316E19D0C00E316E16D0940ECE
:10024600316E13D0D40E316E10D0800E316E0DD0BB
:100256003150010AEEE03150020AEEE03150030A55
:10026600EEE03150040AEEE0F0D73204006E315071
:10027600002600C031F000C039F0E0DE2990356A72
:1002860035503324E96E000E3420EA6EEE520BE050
:1002960035503324E96E000E3420EA6EEECF38F086
:0A02A60026DF352AEDD7298012006B
:1002B000B5EC01F00E0EC16E9280AA0EC06E010E5A
:1002C000C26E060E0C6E300E0D6E0D2EFED70C2E6D
:1002D000FCD7000015DF010E396EB3DE0C0E396E4F
:1002E000B0DE010E316E010E326E150E336E000E51
:1002F000346EA1DFC282C2A201D0FDD7C4CF32F0DA
:10030000316AC3503112000E32122A0E336E000EC3
:10031000346E49DF020E316E050E326E220E336EE0
:10032000000E346E88DF020E316E050E326E2A0E1C
:10033000336E000E346E7FDF020E0B6E040E0C6EF9
:10034000BA0E0D6E0D2EFED70C2EFCD70B2EFAD743
:060350000000D0D7FFD72A
:10036A0010EE15F0140E006E010E016E560EF66EAA
:0E037A00030EF76E000EF86ECBEC00F01200D2
:0D0356004C65697475726120414E303A00AB
:0703630020202020202000D3
:020000040030CA
:0E000000000C1F1EFF8381FF0FC00FE00F409A
:00000001FF
